{
  "_format": "hh-sol-artifact-1",
  "contractName": "VeridicalRegistry",
  "sourceName": "src/contracts/VeridicalRegistry.sol",
  "abi": [
    {
      "anonymous": false,
      "inputs": [
        {
          "indexed": true,
          "internalType": "string",
          "name": "eventId",
          "type": "string"
        },
        {
          "indexed": true,
          "internalType": "address",
          "name": "submitter",
          "type": "address"
        },
        {
          "indexed": false,
          "internalType": "uint256",
          "name": "timestamp",
          "type": "uint256"
        }
      ],
      "name": "RecordSubmitted",
      "type": "event"
    },
    {
      "anonymous": false,
      "inputs": [
        {
          "indexed": true,
          "internalType": "string",
          "name": "eventId",
          "type": "string"
        },
        {
          "indexed": true,
          "internalType": "address",
          "name": "voter",
          "type": "address"
        },
        {
          "indexed": false,
          "internalType": "uint256",
          "name": "newTotal",
          "type": "uint256"
        }
      ],
      "name": "RecordUpvoted",
      "type": "event"
    },
    {
      "inputs": [
        {
          "internalType": "uint256",
          "name": "",
          "type": "uint256"
        }
      ],
      "name": "allRecordIds",
      "outputs": [
        {
          "internalType": "string",
          "name": "",
          "type": "string"
        }
      ],
      "stateMutability": "view",
      "type": "function"
    },
    {
      "inputs": [
        {
          "internalType": "string",
          "name": "eventId",
          "type": "string"
        }
      ],
      "name": "getRecord",
      "outputs": [
        {
          "components": [
            {
              "internalType": "string",
              "name": "eventId",
              "type": "string"
            },
            {
              "internalType": "string",
              "name": "contentHash",
              "type": "string"
            },
            {
              "internalType": "address",
              "name": "submittedBy",
              "type": "address"
            },
            {
              "internalType": "uint256",
              "name": "submittedAt",
              "type": "uint256"
            },
            {
              "internalType": "uint256",
              "name": "upvotes",
              "type": "uint256"
            },
            {
              "internalType": "bool",
              "name": "exists",
              "type": "bool"
            }
          ],
          "internalType": "struct VeridicalRegistry.CrimeRecord",
          "name": "",
          "type": "tuple"
        }
      ],
      "stateMutability": "view",
      "type": "function"
    },
    {
      "inputs": [],
      "name": "getTotalRecords",
      "outputs": [
        {
          "internalType": "uint256",
          "name": "",
          "type": "uint256"
        }
      ],
      "stateMutability": "view",
      "type": "function"
    },
    {
      "inputs": [
        {
          "internalType": "string",
          "name": "",
          "type": "string"
        },
        {
          "internalType": "address",
          "name": "",
          "type": "address"
        }
      ],
      "name": "hasUpvoted",
      "outputs": [
        {
          "internalType": "bool",
          "name": "",
          "type": "bool"
        }
      ],
      "stateMutability": "view",
      "type": "function"
    },
    {
      "inputs": [
        {
          "internalType": "string",
          "name": "",
          "type": "string"
        }
      ],
      "name": "records",
      "outputs": [
        {
          "internalType": "string",
          "name": "eventId",
          "type": "string"
        },
        {
          "internalType": "string",
          "name": "contentHash",
          "type": "string"
        },
        {
          "internalType": "address",
          "name": "submittedBy",
          "type": "address"
        },
        {
          "internalType": "uint256",
          "name": "submittedAt",
          "type": "uint256"
        },
        {
          "internalType": "uint256",
          "name": "upvotes",
          "type": "uint256"
        },
        {
          "internalType": "bool",
          "name": "exists",
          "type": "bool"
        }
      ],
      "stateMutability": "view",
      "type": "function"
    },
    {
      "inputs": [
        {
          "internalType": "string",
          "name": "eventId",
          "type": "string"
        },
        {
          "internalType": "string",
          "name": "contentHash",
          "type": "string"
        }
      ],
      "name": "submitRecord",
      "outputs": [],
      "stateMutability": "nonpayable",
      "type": "function"
    },
    {
      "inputs": [
        {
          "internalType": "string",
          "name": "eventId",
          "type": "string"
        }
      ],
      "name": "upvoteRecord",
      "outputs": [],
      "stateMutability": "nonpayable",
      "type": "function"
    }
  ],
  "bytecode": "0x608060405234801561001057600080fd5b506117ef806100206000396000f3fe608060405234801561001057600080fd5b506004361061007d5760003560e01c8063541e771d1161005b578063541e771d146101005780635cb80c911461013557806371d3b1f814610151578063ed2b2441146101815761007d565b80630aeacb5e1461008257806311dd8845146100a05780633dd390b2146100d0575b600080fd5b61008a61019d565b6040516100979190610b7f565b60405180910390f35b6100ba60048036038101906100b59190610c13565b6101aa565b6040516100c79190610deb565b60405180910390f35b6100ea60048036038101906100e59190610e39565b61038e565b6040516100f79190610eb0565b60405180910390f35b61011a60048036038101906101159190611002565b61043a565b60405161012c96959493929190611069565b60405180910390f35b61014f600480360381019061014a9190610c13565b6105c9565b005b61016b60048036038101906101669190611104565b61081f565b6040516101789190611160565b60405180910390f35b61019b6004803603810190610196919061117b565b610864565b005b6000600280549050905090565b6101b2610b18565b600083836040516101c492919061122c565b90815260200160405180910390206040518060c00160405290816000820180546101ed90611274565b80601f016020809104026020016040519081016040528092919081815260200182805461021990611274565b80156102665780601f1061023b57610100808354040283529160200191610266565b820191906000526020600020905b81548152906001019060200180831161024957829003601f168201915b5050505050815260200160018201805461027f90611274565b80601f01602080910402602001604051908101604052809291908181526020018280546102ab90611274565b80156102f85780601f106102cd576101008083540402835291602001916102f8565b820191906000526020600020905b8154815290600101906020018083116102db57829003601f168201915b505050505081526020016002820160009054906101000a900473ffffffffffffffffffffffffffffffffffffffff1673ffffffffffffffffffffffffffffffffffffffff1673ffffffffffffffffffffffffffffffffffffffff16815260200160038201548152602001600482015481526020016005820160009054906101000a900460ff161515151581525050905092915050565b6002818154811061039e57600080fd5b9060005260206000200160009150905080546103b990611274565b80601f01602080910402602001604051908101604052809291908181526020018280546103e590611274565b80156104325780601f1061040757610100808354040283529160200191610432565b820191906000526020600020905b81548152906001019060200180831161041557829003601f168201915b505050505081565b60008180516020810182018051848252602083016020850120818352809550505050505060009150905080600001805461047390611274565b80601f016020809104026020016040519081016040528092919081815260200182805461049f90611274565b80156104ec5780601f106104c1576101008083540402835291602001916104ec565b820191906000526020600020905b8154815290600101906020018083116104cf57829003601f168201915b50505050509080600101805461050190611274565b80601f016020809104026020016040519081016040528092919081815260200182805461052d90611274565b801561057a5780601f1061054f5761010080835404028352916020019161057a565b820191906000526020600020905b81548152906001019060200180831161055d57829003601f168201915b5050505050908060020160009054906101000a900473ffffffffffffffffffffffffffffffffffffffff16908060030154908060040154908060050160009054906101000a900460ff16905086565b600082826040516105db92919061122c565b908152602001604051809103902060050160009054906101000a900460ff16610639576040517f08c379a0000000000000000000000000000000000000000000000000000000008152600401610630906112f1565b60405180910390fd5b6001828260405161064b92919061122c565b908152602001604051809103902060003373ffffffffffffffffffffffffffffffffffffffff1673ffffffffffffffffffffffffffffffffffffffff16815260200190815260200160002060009054906101000a900460ff16156106e4576040517f08c379a00000000000000000000000000000000000000000000000000000000081526004016106db9061135d565b60405180910390fd5b60018083836040516106f792919061122c565b908152602001604051809103902060003373ffffffffffffffffffffffffffffffffffffffff1673ffffffffffffffffffffffffffffffffffffffff16815260200190815260200160002060006101000a81548160ff0219169083151502179055506000828260405161076b92919061122c565b9081526020016040518091039020600401600081548092919061078d906113ac565b91905055503373ffffffffffffffffffffffffffffffffffffffff1682826040516107b992919061122c565b60405180910390207f20830e15da02b2a89123fae9f35f0bbe3d9b44c969650dbc77c479bbd27ccdad600085856040516107f492919061122c565b9081526020016040518091039020600401546040516108139190610b7f565b60405180910390a35050565b6001828051602081018201805184825260208301602085012081835280955050505050506020528060005260406000206000915091509054906101000a900460ff1681565b6000848460405161087692919061122c565b908152602001604051809103902060050160009054906101000a900460ff16156108d5576040517f08c379a00000000000000000000000000000000000000000000000000000000081526004016108cc90611440565b60405180910390fd5b6040518060c0016040528085858080601f016020809104026020016040519081016040528093929190818152602001838380828437600081840152601f19601f82011690508083019250505050505050815260200183838080601f016020809104026020016040519081016040528093929190818152602001838380828437600081840152601f19601f8201169050808301925050505050505081526020013373ffffffffffffffffffffffffffffffffffffffff1681526020014281526020016000815260200160011515815250600085856040516109b692919061122c565b908152602001604051809103902060008201518160000190816109d9919061160c565b5060208201518160010190816109ef919061160c565b5060408201518160020160006101000a81548173ffffffffffffffffffffffffffffffffffffffff021916908373ffffffffffffffffffffffffffffffffffffffff160217905550606082015181600301556080820151816004015560a08201518160050160006101000a81548160ff0219169083151502179055509050506002848490918060018154018082558091505060019003906000526020600020016000909192909192909192909192509182610aab9291906116e9565b503373ffffffffffffffffffffffffffffffffffffffff168484604051610ad392919061122c565b60405180910390207f57b7ab8c3da76274377a7670f5a014f52e1d46536261a424079731d34b72d20842604051610b0a9190610b7f565b60405180910390a350505050565b6040518060c001604052806060815260200160608152602001600073ffffffffffffffffffffffffffffffffffffffff16815260200160008152602001600081526020016000151581525090565b6000819050919050565b610b7981610b66565b82525050565b6000602082019050610b946000830184610b70565b92915050565b6000604051905090565b600080fd5b600080fd5b600080fd5b600080fd5b600080fd5b60008083601f840112610bd357610bd2610bae565b5b8235905067ffffffffffffffff811115610bf057610bef610bb3565b5b602083019150836001820283011115610c0c57610c0b610bb8565b5b9250929050565b60008060208385031215610c2a57610c29610ba4565b5b600083013567ffffffffffffffff811115610c4857610c47610ba9565b5b610c5485828601610bbd565b92509250509250929050565b600081519050919050565b600082825260208201905092915050565b60005b83811015610c9a578082015181840152602081019050610c7f565b60008484015250505050565b6000601f19601f8301169050919050565b6000610cc282610c60565b610ccc8185610c6b565b9350610cdc818560208601610c7c565b610ce581610ca6565b840191505092915050565b600073ffffffffffffffffffffffffffffffffffffffff82169050919050565b6000610d1b82610cf0565b9050919050565b610d2b81610d10565b82525050565b610d3a81610b66565b82525050565b60008115159050919050565b610d5581610d40565b82525050565b600060c0830160008301518482036000860152610d788282610cb7565b91505060208301518482036020860152610d928282610cb7565b9150506040830151610da76040860182610d22565b506060830151610dba6060860182610d31565b506080830151610dcd6080860182610d31565b5060a0830151610de060a0860182610d4c565b508091505092915050565b60006020820190508181036000830152610e058184610d5b565b905092915050565b610e1681610b66565b8114610e2157600080fd5b50565b600081359050610e3381610e0d565b92915050565b600060208284031215610e4f57610e4e610ba4565b5b6000610e5d84828501610e24565b91505092915050565b600082825260208201905092915050565b6000610e8282610c60565b610e8c8185610e66565b9350610e9c818560208601610c7c565b610ea581610ca6565b840191505092915050565b60006020820190508181036000830152610eca8184610e77565b905092915050565b600080fd5b7f4e487b7100000000000000000000000000000000000000000000000000000000600052604160045260246000fd5b610f0f82610ca6565b810181811067ffffffffffffffff82111715610f2e57610f2d610ed7565b5b80604052505050565b6000610f41610b9a565b9050610f4d8282610f06565b919050565b600067ffffffffffffffff821115610f6d57610f6c610ed7565b5b610f7682610ca6565b9050602081019050919050565b82818337600083830152505050565b6000610fa5610fa084610f52565b610f37565b905082815260208101848484011115610fc157610fc0610ed2565b5b610fcc848285610f83565b509392505050565b600082601f830112610fe957610fe8610bae565b5b8135610ff9848260208601610f92565b91505092915050565b60006020828403121561101857611017610ba4565b5b600082013567ffffffffffffffff81111561103657611035610ba9565b5b61104284828501610fd4565b91505092915050565b61105481610d10565b82525050565b61106381610d40565b82525050565b600060c08201905081810360008301526110838189610e77565b905081810360208301526110978188610e77565b90506110a6604083018761104b565b6110b36060830186610b70565b6110c06080830185610b70565b6110cd60a083018461105a565b979650505050505050565b6110e181610d10565b81146110ec57600080fd5b50565b6000813590506110fe816110d8565b92915050565b6000806040838503121561111b5761111a610ba4565b5b600083013567ffffffffffffffff81111561113957611138610ba9565b5b61114585828601610fd4565b9250506020611156858286016110ef565b9150509250929050565b6000602082019050611175600083018461105a565b92915050565b6000806000806040858703121561119557611194610ba4565b5b600085013567ffffffffffffffff8111156111b3576111b2610ba9565b5b6111bf87828801610bbd565b9450945050602085013567ffffffffffffffff8111156111e2576111e1610ba9565b5b6111ee87828801610bbd565b925092505092959194509250565b600081905092915050565b600061121383856111fc565b9350611220838584610f83565b82840190509392505050565b6000611239828486611207565b91508190509392505050565b7f4e487b7100000000000000000000000000000000000000000000000000000000600052602260045260246000fd5b6000600282049050600182168061128c57607f821691505b60208210810361129f5761129e611245565b5b50919050565b7f5265636f7264206e6f7420666f756e6400000000000000000000000000000000600082015250565b60006112db601083610e66565b91506112e6826112a5565b602082019050919050565b6000602082019050818103600083015261130a816112ce565b9050919050565b7f416c7265616479207570766f7465640000000000000000000000000000000000600082015250565b6000611347600f83610e66565b915061135282611311565b602082019050919050565b600060208201905081810360008301526113768161133a565b9050919050565b7f4e487b7100000000000000000000000000000000000000000000000000000000600052601160045260246000fd5b60006113b782610b66565b91507fffffffffffffffffffffffffffffffffffffffffffffffffffffffffffffffff82036113e9576113e861137d565b5b600182019050919050565b7f5265636f726420616c7265616479206578697374730000000000000000000000600082015250565b600061142a601583610e66565b9150611435826113f4565b602082019050919050565b600060208201905081810360008301526114598161141d565b9050919050565b60008190508160005260206000209050919050565b60006020601f8301049050919050565b600082821b905092915050565b6000600883026114c27fffffffffffffffffffffffffffffffffffffffffffffffffffffffffffffffff82611485565b6114cc8683611485565b95508019841693508086168417925050509392505050565b6000819050919050565b60006115096115046114ff84610b66565b6114e4565b610b66565b9050919050565b6000819050919050565b611523836114ee565b61153761152f82611510565b848454611492565b825550505050565b600090565b61154c61153f565b61155781848461151a565b505050565b5b8181101561157b57611570600082611544565b60018101905061155d565b5050565b601f8211156115c05761159181611460565b61159a84611475565b810160208510156115a9578190505b6115bd6115b585611475565b83018261155c565b50505b505050565b600082821c905092915050565b60006115e3600019846008026115c5565b1980831691505092915050565b60006115fc83836115d2565b9150826002028217905092915050565b61161582610c60565b67ffffffffffffffff81111561162e5761162d610ed7565b5b6116388254611274565b61164382828561157f565b600060209050601f8311600181146116765760008415611664578287015190505b61166e85826115f0565b8655506116d6565b601f19841661168486611460565b60005b828110156116ac57848901518255600182019150602085019450602081019050611687565b868310156116c957848901516116c5601f8916826115d2565b8355505b6001600288020188555050505b505050505050565b600082905092915050565b6116f383836116de565b67ffffffffffffffff81111561170c5761170b610ed7565b5b6117168254611274565b61172182828561157f565b6000601f831160018114611750576000841561173e578287013590505b61174885826115f0565b8655506117b0565b601f19841661175e86611460565b60005b8281101561178657848901358255600182019150602085019450602081019050611761565b868310156117a3578489013561179f601f8916826115d2565b8355505b6001600288020188555050505b5050505050505056fea2646970667358221220377fccff91c354cc0c11f2f201a80c203422008a5b4458d14261bf5ef03e39b164736f6c63430008140033",
  "linkReferences": {},
  "deployedLinkReferences": {}
}